:100000000080001071010000E9010000EF01000014
:10001000F5010000FB0100000102000000000000EB
:100020000000000000000000000000003904000093
:100030000D02000000000000310500007105000005
:100040001F0200001F0200001F0200001F0200002C
:100050001F0200001F0200001F0200001F0200001C
:100060001F0200001F0200001F0200001F0200000C
:100070001F0200001F0200001F0200001F020000FC
:100080001F0200001F0200001F0200001F020000EC
:100090001F0200001F0200001F0200001F020000DC
:1000A0001F0200001F0200001F0200001F020000CC
:1000B0001F0200001F0200001F0200001F020000BC
:1000C0001F0200001F0200001F020000D4450000B4
:1000D0000000001008000000D445000000C0072008
:1000E00000000000080000103403000000C00720DA
:1000F0000000000080B489B000AFF860B9607A6099
:10010000BB68FB61FB68BB6100237B610AE0BA69E5
:10011000131DBB61FB69191DF96112681A607B69C7
:1001200004337B617A697B689A42F0D300BF00BFD9
:100130002437BD4680BC704780B485B000AF78607E
:1001400039607B68FB600023BB6007E0FB681A1D19
:10015000FA6000221A60BB680433BB60BA683B686F
:100160009A42F3D300BF00BF1437BD4680BC70472E
:1001700080B584B000AF194BFB6013E0FB681A1D1B
:10018000FA601B683B60FB681A1DFA601B68BB6065
:10019000FB681A1DFA601B687B607A68B96838686A
:1001A000FFF7A8FFFB680E4A9342E7D30DE0FB6818
:1001B0001A1DFA601B68BB60FB681A1DFA601B6899
:1001C0007B607968B868FFF7B7FFFB68054A934220
:1001D000EDD300F0A9FF01F0DAFDFEE7CC0000004E
:1001E000E4000000F400000080B400AFFEE780B43B
:1001F00000AFFEE780B400AFFEE780B400AFFEE7DB
:1002000080B400AFFEE780B400AFFEE780B400AF7B
:10021000FEE780B400AFFEE780B400AFFEE780B435
:1002200000AFFEE780B400AF30BF00BF00BFBD46E7
:1002300080BC704780B584B000AF786000F084FB6C
:10024000786801F0ADFDF86000F0B2FBFB6818467D
:100250001037BD4680BD80B582B000AF78607B6846
:10026000002B06D000F070FB786801F0FDFD00F077
:100270009FFB00BF0837BD4680BD80B483B000AF90
:1002800078607B6803F108027B685A607B684FF0F6
:10029000FF329A607B6803F108027B68DA607B6852
:1002A00003F108027B681A617B6800221A6000BFB4
:1002B0000C37BD4680BC704780B483B000AF786017
:1002C0007B6800221A6100BF0C37BD4680BC7047B6
:1002D00080B485B000AF786039607B685B68FB6094
:1002E0003B68FA685A60FB689A683B689A60FB68EA
:1002F0009B683A685A60FB683A689A603B687A681B
:100300001A617B681B685A1C7B681A6000BF14372F
:10031000BD4680BC704780B485B000AF786039605E
:100320003B681B68BB60BB68B3F1FF3F03D17B68D0
:100330001B69FB600CE07B680833FB6002E0FB6834
:100340005B68FB60FB685B681B68BA689A42F6D220
:10035000FB685A683B685A603B685B683A689A6019
:100360003B68FA689A60FB683A685A603B687A684A
:100370001A617B681B685A1C7B681A6000BF1437BF
:10038000BD4680BC704780B485B000AF78607B68A4
:100390005B687A6892689A607B689B687A68526842
:1003A0005A607B681B69FB60FB685B687A689A42ED
:1003B00003D17B689A68FB685A607B6800221A61E7
:1003C000FB681B685A1EFB681A60FB681B681846AE
:1003D0001437BD4680BC704780B485B000AFF8606C
:1003E000B9607A60FB68043BFB60FB684FF0807289
:1003F0001A60FB68043BFB60BA68FB681A60FB6824
:10040000043BFB60084AFB681A60FB68143BFB6016
:100410007A68FB681A60FB68203BFB60FB68184643
:100420001437BD4680BC70472D04000080B500AF76
:1004300000F070F8FEE7FFFF064B19680868B0E8A7
:10044000F00F80F309884FF0000080F311884EF020
:100450000D0E70471400001000BF00BF0448006874
:10046000006880F3088862B600DF00BF00BF0000AC
:1004700008ED00E080B500AF0A4B1B68094A43F461
:1004800078031360074B1B68064A43F078431360F8
:1004900000F030F9044B00221A60FFF7DFFF002361
:1004A000184680BD20ED00E00000001080B400AFD1
:1004B000054B4FF080521A60BFF34F8FBFF36F8F21
:1004C00000BFBD4680BC704704ED00E080B500AFC2
:1004D00000F020F8054B1B680133044A1360BFF39A
:1004E0004F8FBFF36F8F00BF80BD00BF00000010B3
:1004F00080B500AF064B1B68013B054A1360044BF7
:100500001B68002B02D1002000F00DF800BF80BD59
:1005100000000010EFF311804FF0280181F31188E3
:1005200070470023184680F31188704700BFFFFF13
:10053000EFF309800C4B1A6820E9F00F10602DE9E9
:1005400008404FF0280080F3118800F087FB4FF03F
:10055000000080F31188BDE8084019680868B0E819
:10056000F00F80F3098870471400001000BF00BF2F
:1005700080B500AFFFF7CEFF00F0AAFA0346002BCC
:1005800003D0044B4FF080521A600020FFF7CBFFDE
:1005900000BF80BD04ED00E080B588B000AF78609A
:1005A0004E4B1B687A689A4202D94C4B1B687B60A1
:1005B0004B4B06221A604B4B1A687B68013B4A4939
:1005C000096801FB03F31344FB61484B1B68FA699C
:1005D0009A4204D9454B1B68FA69D31AFB6172B67B
:1005E00000F0ACFB0346002B0DD13E4B404A1B688C
:1005F00013603B4B07221A603B4B1B683C4A013B94
:10060000136062B665E03A4AFB691360354B00221D
:100610001A60334B07221A607B683B613B69002BF1
:1006200004D0BFF34F8F30BFBFF36F8F2C4B062228
:100630001A6062B62A4B1B6803F48033002B1DD06E
:10064000294B1A68274B1968FB69CB1A1344013BE5
:100650007B61264B1B687A699A4204D3224B1B6844
:100660007A699A4203D9204B1B68013B7B61204A7F
:100670007B6913607B68013BBB6118E01A4B1B6808
:100680007A6802FB03F2174B1B68D31AFB60164B08
:100690001B68FA68B2FBF3F3BB61BB690133124A12
:1006A000126802FB03F21249FB68D31A0B600D4B70
:1006B00000221A60FFF70AFF094B07221A60B86987
:1006C00000F0F4F9084B1B68094A013B1360FFF77F
:1006D0000FFF00BF2037BD4680BD00BF0C000010DB
:1006E00010E000E018E000E008000010100000102A
:1006F00014E000E080B400AF114B1B68114AA2FB6C
:1007000003239B09104A13600F4B1B686FF07F4255
:10071000B2FBF3F30D4A13600D4B2D221A60084B08
:100720001B68084AA2FB03239B090A4A013B13608A
:10073000094B07221A6000BFBD4680BC704700BF4E
:1007400038030010D34D6210080000100C00001098
:100750001000001014E000E010E000E080B58AB066
:1007600002AFF860B9603B601346FB80FB88396BD1
:10077000184600F00FFCB861BB69002B6AD0BB695A
:100780001A6BFB8803F18043013B9B0013447B61A0
:100790007B6923F007037B61FB8800937B6BBA6A5C
:1007A000B968B86900F0F8FA3A68F9687869FFF74B
:1007B00013FE0246BB691A60FB6A002B02D0FB6A7B
:1007C000BA691A60FFF782FE2E4B1B6801332D4A6F
:1007D00013602D4B1B68002B09D12B4ABB6913609A
:1007E000284B1B68012B0FD100F022FB0CE0274B9C
:1007F0001B68002B08D1244B1B68DB6ABA6A9A423B
:1008000002D3214ABB691360214B1B680133204A84
:1008100013601F4B1A68BB699A64BB69DA6A1D4B87
:100820001B689A4203D9BB69DB6A1A4A1360BB6929
:10083000DA6A13469B0013449B00174A1A44BB69AB
:10084000043319461046FFF743FD0123FB61FFF710
:100850004FFE02E04FF0FF33FB61FB69012B0BD130
:100860000A4B1B68002B07D0074B1B68DB6ABA6A70
:100870009A4201D9FFF71AFEFB6918462037BD4698
:1008800080BD00BF280100101400001034010010CA
:1008900048010010300100101800001080B584B02D
:1008A00000AF78600023FB607B68002B12D000F063
:1008B0004BF80D4B1B687A681344BB600B4B1B68ED
:1008C00004331846FFF75FFDB86800F02DFB00F019
:1008D0006FF8F860FB68002B01D1FFF7E7FD00BF60
:1008E0001037BD4680BD00BF2C0100101400001061
:1008F00080B586B004AF0023039300230293002346
:10090000019300230093002380220B490B48FFF73B
:1009100025FF78607B68012B09D1FFF7FBFD084BB1
:1009200001221A60074B00221A60FFF7A3FD00BFE7
:100930000837BD4680BD00BFB0440000F50C000084
:10094000340100102C01001080B400AF044B1B6870
:100950000133034A136000BFBD4680BC704700BF2F
:100960003801001080B483B000AF0D4B1B68DB6A08
:10097000002B02D000237B600CE00A4B1B68012B8C
:1009800002D900237B6005E0074B1A68074B1B6800
:10099000D31A7B607B6818460C37BD4680BC704715
:1009A0001400001018000010040000102C010010AA
:1009B00080B582B000AF00237B60FFF787FD334B2B
:1009C0001B68013B314A1360304B1B68002B56D12A
:1009D0002F4B1B68002B52D02FE02E4BDB68DB68BF
:1009E0003B603B6818331846FFF7CDFC3B68043387
:1009F0001846FFF7C8FC3B68DA6A274B1B689A4227
:100A000003D93B68DB6A244A13603B68DA6A134601
:100A10009B0013449B00214A1A443B680433194647
:100A20001046FFF755FC3B68DA6A1D4B1B68DB6A12
:100A30009A4202D31B4B01221A60164B1B68002BF3
:100A4000CBD1194B1B68002B11D00CE000F040F803
:100A50000346002B02D0134B01221A60124B1B6875
:100A6000013B114A1360104B1B68002BEED10D4B5C
:100A70001B68012B03D101237B60FFF717FDFFF7F4
:100A800037FD7B6818460837BD4680BD3801001029
:100A900028010010E80000103001001018000010BC
:100AA00014000010400100103C01001080B483B01D
:100AB00000AF7860054B1A687B681344034A1360E3
:100AC00000BF0C37BD4680BC704700BF2C01001032
:100AD00080B586B000AF00237B61554B1B68002BAF
:100AE00040F09580534B1B680133524A1360514BC1
:100AF0001B683B613B69002B26D14F4B1B68FB6099
:100B00004E4B1B684C4A13604C4AFB6813604C4BBD
:100B10001B6801334A4A1360474B1B681B68002B54
:100B200001D1012300E00023002B04D0454B4FF0FE
:100B3000FF321A6008E0404B1B68DB68DB68BB6073
:100B4000BB685B683F4A13603E4B1B683A699A4238
:100B50004ED3394B1B681B68002B01D1012300E0E9
:100B60000023002B04D0374B4FF0FF321A603FE0D8
:100B7000314B1B68DB68DB68BB60BB685B687B6014
:100B80003A697B689A4203D22E4A7B6813602FE051
:100B9000BB6804331846FFF7F6FBBB689B6A002B63
:100BA00004D0BB6818331846FFF7EDFBBB68DA6A60
:100BB000254B1B689A4203D9BB68DB6A224A136043
:100BC000BB68DA6A13469B0013449B001F4A1A4411
:100BD000BB68043319461046FFF77AFBBB68DA6A34
:100BE0001B4B1B68DB6A9A42B3D301237B61B0E7DE
:100BF000174B1B68DA6A154913469B0013449B0088
:100C00000B441B68012B07D901237B6104E0114BC6
:100C10001B6801330F4A13600F4B1B68002B01D078
:100C200001237B617B6918461837BD4680BD00BF34
:100C3000380100102C010010E0000010E40000104A
:100C400044010010040000103001001018000010D2
:100C5000140000103C0100104001001080B483B06B
:100C600000AF1F4B1B68002B03D01E4B01221A60E4
:100C700031E01C4B00221A6004E01B4B1B68013B57
:100C8000194A1360184B1A68184913469B001344FD
:100C90009B000B441B68002BEFD0134B1A681346C4
:100CA0009B0013449B00114A13447B607B685B6884
:100CB0005A687B685A607B685A687B6808339A4236
:100CC00004D17B685B685A687B685A607B685B68A4
:100CD000DB68074A136000BF0C37BD4680BC704715
:100CE0003801001040010010300100101800001001
:100CF0001400001080B584B000AF786000F0D8F820
:100D00000D4B1B68012B01D9FFF7D0FBFFF78AFAC7
:100D1000FFF728FEF860FB68012BEFD9FFF714FE00
:100D2000FFF720FEF860FB68012B02D9F868FFF797
:100D300033FCFFF73DFEE1E71800001080B483B0FC
:100D400000AF0123FB71104B1B68002B02D0002366
:100D5000FB7112E00D4B1B68002B02D00023FB71CE
:100D60000BE001233B600A4B1A680A4B19683B6889
:100D7000CB1A9A4201D10223FB71FB7918460C373A
:100D8000BD4680BC704700BFE80000104001001065
:100D9000140100102801001080B586B000AFF86083
:100DA000B9607A603B6000237B6114E0BA687B69BC
:100DB000134493F90010FA687B69134434330A46EC
:100DC0001A70BA687B69134493F90030002B06D07F
:100DD0007B6901337B617B69132BE7D900E000BF9E
:100DE000FB68002283F847207B68072B01D9072383
:100DF0007B60FB687A68DA62FB687A681A65FB6870
:100E000004331846FFF758FAFB6818331846FFF703
:100E100053FAFB68FA681A617B68C3F10802FB6841
:100E20009A61FB68FA685A6200BF1837BD4680BDF8
:100E300080B582B000AF00237B600CE07A68134677
:100E40009B0013449B00124A13441846FFF715FAFF
:100E50007B6801337B607B68072BEFD90D48FFF778
:100E60000CFA0D48FFF709FA0C48FFF706FA0C4890
:100E7000FFF703FA0B48FFF700FA0B4B054A1A601D
:100E80000A4B054A1A6000BF0837BD4680BD00BF47
:100E900018000010B8000010CC000010E80000108E
:100EA000FC00001014010010E0000010E40000102D
:100EB00080B582B000AF28E0FFF746FD174B1B68F6
:100EC000002B0CBF01230023DBB27B60FFF770FD1A
:100ED0007B68002B19D1FFF7F9FA104BDB68DB6850
:100EE0003B603B6804331846FFF74DFA0C4B1B6818
:100EF000013B0B4A13600B4B1B68013B094A136013
:100F0000FFF7F6FA386800F076F8064B1B68002BFE
:100F1000D2D100BF00BF0837BD4680BDFC00001025
:100F2000280100101001001080B582B000AF786079
:100F3000134B1B687A685A60124B1B687A689A4296
:100F400009D2114B1A680E4B1B6804331946104620
:100F5000FFF7E1F910E00D4B1A68094B1B680433E9
:100F600019461046FFF7D7F9094B1B687A689A4271
:100F700002D2074A7B68136000BF0837BD4680BDB8
:100F8000140000102C010010E4000010E00000101C
:100F90000400001080B584B000AF03463960FB80C8
:100FA0005420FFF747F9F860FB68002B1ED03B6820
:100FB000002B06D1FB889B001846FFF73BF9034640
:100FC00000E03B68FA681363FB681B6B002B05D1DC
:100FD000F868FFF740F90023FB6007E0FB68186B37
:100FE000FB889B001A46A52100F0D8FEFB68184636
:100FF0001037BD4680BD80B582B000AF78607B6899
:101000001B6B1846FFF727F97868FFF724F900BF34
:101010000837BD4680BD80B500AF00F051FA00F042
:1010200005FA0021002000F0E9F900BF80BD80B57D
:1010300084B000AF78600023FB73FB7B194600206F
:1010400000F0DCF9FB7B83F00103FB73A620FFF7C4
:1010500025FCF2E780B584B000AF78600023FB7315
:10106000FB7B1946012000F0C9F9FB7B83F00103EB
:10107000FB734720FFF712FCF2E7FFFF80B584B057
:1010800000AF78600023FB60F968054801F060FC60
:10109000FB680133FB604FF47A70FFF7FFFBF3E767
:1010A000B844000080B584B004AFFFF7B4FF00235C
:1010B0000393002302930023019301230093002351
:1010C000802213491348FFF749FB002303930023B1
:1010D00002930023019301230093002380220E49F1
:1010E0000E48FFF73BFB00230393002302930023EA
:1010F0000193012300930023802209490948FFF747
:101100002DFBFFF7F5FB01231846BD4680BD00BF50
:10111000C44400002F100000D0440000551000000F
:10112000DC4400007D10000080B582B000AF054BAC
:101130007B60054A7B681A6000F0B9F900BF083788
:10114000BD4680BD08ED00E00000000080B582B023
:1011500000AF78600F2000F0A7FA00BF0837BD4647
:1011600080BD80B582B000AF78600F2000F09CFA9F
:1011700000BF0837BD4680BD80B483B000AF786043
:10118000084611461A460346FB700B46BB701346D1
:101190007B707B78002B0ED0FB785B017A68134460
:1011A0009969BB7801229A40FB785B017868034417
:1011B0000A439A610DE0FB785B017A681344D969B0
:1011C000BB7801229A40FB785B01786803440A43AC
:1011D000DA6100BF0C37BD4680BC704780B584B073
:1011E00000AFF860B96011461A460B46FB71134612
:1011F000BB71BB68D9B2BB79FA79F868FFF7BCFF5D
:1012000000BF1037BD4680BD80B483B000AF7860AA
:101210000B46FB701346BB70FB785B017A68134486
:101220001968BB7801229A40FB785B017868034417
:101230000A431A6000BF0C37BD4680BC704780B4BB
:1012400083B000AF78600B46FB701346BB70FB7831
:101250005B017A6813441968BB78012202FA03F330
:10126000DA43FB785B01786803440A401A6000BFE8
:101270000C37BD4680BC704780B582B000AF786047
:10128000084611461A460346FB700B46BB701346D0
:101290007B707B78002B06D0BA78FB78194678688B
:1012A000FFF7B2FF05E0BA78FB7819467868FFF7D8
:1012B000C6FF00BF0837BD4680BD80B582B000AF15
:1012C0007860084611461A460346FB700B46BB7011
:1012D00013467B707B78BA78F9787868FFF7CCFF93
:1012E00000BF0837BD4680BD80B483B000AF7860D2
:1012F0000B46FB70FA787B681A6000BF0C37BD465E
:1013000080BC704780B483B000AF786039607B6880
:101310003A68DA6000BF0C37BD4680BC704780B4C5
:1013200083B000AF78607B685B6918460C37BD46B8
:1013300080BC704780B586B000AFF860B9607A6055
:1013400000237B6109E0BA687B6913441B78184667
:1013500000F03AF87B6901337B617B687A699A42D5
:10136000F1D37B6818461837BD4680BD80B500AF05
:101370000123162200210248FFF79FFF00BF80BD16
:1013800000C0092080B483B000AF786000BF0C3784
:10139000BD4680BC7047FFFF80B500AF0948FFF72E
:1013A000F1FF084800F06EFC4FF4E131054800F011
:1013B000BDFC03210348FFF7A5FF024800F09EFC97
:1013C00000BF80BD00C0094080B582B000AF0346B9
:1013D000FB7100BF0848FFF7A2FF034603F020039C
:1013E000002BF7D0FB7919460348FFF77DFF00BFBC
:1013F0000837BD4680BD00BF00C0094080B582B03F
:1014000000AF03460A46FB711346BB71FB79002B04
:1014100005D1BB79162200210348FFF7DFFE00BF8C
:101420000837BD4680BD00BF00C0092080B500AFB1
:10143000FFF7B2FF0448FFF794FE0448FFF786FE6B
:10144000FFF794FF00BF80BD00C0092000C002402C
:1014500080B485B000AF0346FB71084B1B68C3F333
:101460000B03FB60FB791B031946044AFB680B4323
:10147000136000BF1437BD4680BC704700C00F40EA
:1014800080B500AF17220349034800F07DFA00BF82
:1014900080BD00BFF044000000C0024080B500AF36
:1014A00000F00CFB0420FFF7D3FF00BF80BD80B528
:1014B00000AFFFF7E5FFFFF7F1FF00BF80BDFFFFC3
:1014C00080B500AF00F0DCF90346024A136000BFAC
:1014D00080BD00BF3803001080B400AF064BD3F8C6
:1014E000883003F08073002B14BF01230023DBB28C
:1014F0001846BD4680BC704700C00F4080B400AFA6
:10150000064BD3F8883003F00073002B14BF01237F
:101510000023DBB21846BD4680BC704700C00F40B8
:1015200080B483B000AF0346FB71094AFB795B01CD
:1015300013448C33AA221A60054AFB795B011344D9
:101540008C3355221A6000BF0C37BD4680BC7047F3
:1015500000C00F4080B400AF054BD3F80C31DBB2B4
:1015600003F00303DBB21846BD4680BC704700BFE2
:1015700000C00F4080B400AF024B1B681846BD4648
:1015800080BC7047E844000080B400AF024B1846AE
:10159000BD4680BC704700BF00093D0080B400AF6D
:1015A000024B1B681846BD4680BC7047EC440000E7
:1015B00080B500AF00F008F90346184680BDFFFF74
:1015C00080B584B000AF03463960FB710C4AFB79EB
:1015D00004335B0113441B68FB60FA683B681343E8
:1015E000FB60074AFB7904335B011344FA681A6015
:1015F000FB791846FFF794FF00BF1037BD4680BD4A
:1016000000C00F4080B584B000AF03463960FB7165
:101610000D4AFB7904335B0113441B68FB603B6894
:10162000DB43FA681340FB60074AFB7904335B0134
:101630001344FA681A60FB791846FFF771FF00BF80
:101640001037BD4680BD00BF00C00F4080B586B0DA
:1016500000AF0346B9607A60FB73FB7B002B05D1BA
:101660007B681B04BA6813437B6104E07B685B0101
:10167000BA6813437B610B4AFB7B04335B01134461
:1016800004337A691A60074AFB7B04335B01134415
:1016900001221A60FB7B1846FFF742FF00BF183794
:1016A000BD4680BD00C00F4080B485B000AF03468A
:1016B000FB71FB79FB60084BD3F8C4300121FA6859
:1016C00001FA02F21146044A0B43C2F8C43000BFCB
:1016D0001437BD4680BC704700C00F4080B582B053
:1016E00000AFFFF70BFF0346002B02D00123FB7175
:1016F00001E00023FB71FB7918460837BD4680BD29
:1017000080B483B000AF7860044A7B68C2F80431CB
:1017100000BF0C37BD4680BC704700BF00C00F4003
:1017200080B400AF044BD3F80431DBB20133184668
:10173000BD4680BC704700BF00C00F4080B487B07A
:1017400000AF0346FB7101237B61FB795B003B61CA
:101750003B6903F01F03FB603B695B093B61194A6E
:101760003B696A3352F823307B617A69FB6822FA5D
:1017700003F303F003037B617B69002B02D1042395
:101780007B6119E07B69012B02D101237B6113E0AE
:101790007B69022B02D102237B610DE0FB790D2BCB
:1017A00005D0FB790E2B02D0FB790F2B02D106233B
:1017B0007B6101E008237B617B6918461C37BD46CD
:1017C00080BC704700C00F4080B500AFFFF7C2FE7D
:1017D0000346022B0ED0022B10DC002B02D0012B73
:1017E00004D00BE0FFF7D0FE034608E0FFF7C2FE8F
:1017F000034604E0FFF7D2FE034600E0002318464C
:1018000080BDFFFF80B584B000AF0023FB60FFF711
:1018100063FE0346002B18D00E4BD3F88430C3F37D
:101820000E030133BB600B4BD3F884301B0CDBB2CF
:1018300001337B60FFF7BCFE0246BB6803FB02F38B
:101840005A007B68B2FBF3F3FB60FB681846103765
:10185000BD4680BD00C00F4080B500AFFFF73EFF22
:101860000346002B05D0012B07D1FFF7CBFF034622
:1018700004E0FFF7A9FF034600E00023184680BDFF
:1018800098B500AFFFF7E8FF0446FFF749FF0346AE
:10189000B4FBF3F3184698BD90B583B000AF034690
:1018A000FB71FFF7EDFF0446FB791846FFF746FF93
:1018B0000346B4FBF3F318460C37BD4690BD80B524
:1018C00086B002AFF8607B600B46FB721346BB72BA
:1018D0007B6898087B68DBB203F00303DBB2BA7A5B
:1018E000F97A00930346F86800F004F800BF103757
:1018F000BD4680BD80B487B000AFF8607B600B460A
:10190000FB721346BB72BB7A03F00F03DBB25B00C2
:10191000FB75FB7A5B00DAB2BB7A1B09DBB21344BE
:10192000BB75BA7DFB6853F82220FB7D032101FAC9
:1019300003F3DB4313403B6197F82020FB7D02FA61
:1019400003F31946BA7D3B691943FB6843F822103B
:10195000BA7DFB68103253F82220FB7D032101FA87
:1019600003F3DB4313403B61FB7D7A6802FA03F12A
:10197000BA7D3B691943FB68103243F8221000BF5F
:101980001C37BD4680BC704780B586B000AFF8609C
:10199000B9607A6000237B611FE07B699B00BA68B5
:1019A00013441B78C3F30203DBB219467B699B0027
:1019B000BA6813441B78C3F3C403DBB218467B69CF
:1019C0009B00BA6813441B68C3F317230246F868E8
:1019D000FFF775FF7B6901337B617A697B689A4207
:1019E000DBD300BF00BF1837BD4680BD80B400AF59
:1019F000064BD3F8883003F08073002B14BF01230B
:101A00000023DBB21846BD4680BC704700C00F40C3
:101A100080B400AF064BD3F8883003F08063002B0E
:101A200014BF01230023DBB21846BD4680BC7047BB
:101A300000C00F4080B400AF064BD3F8883003F0ED
:101A40000073002B14BF01230023DBB21846BD46F0
:101A500080BC704700C00F4080B400AF054BD3F886
:101A6000A031044A43F02003C2F8A03100BFBD46B4
:101A700080BC704700C00F4080B400AF064BD3F865
:101A8000A03103F04003002B14BF01230023DBB27D
:101A90001846BD4680BC704700C00F4080B483B07C
:101AA00000AF0346FB71044AFB79C2F80C3100BF5A
:101AB0000C37BD4680BC704700C00F4080B500AFFA
:101AC000FFF7B8FF0346002B03D002210020FFF7E9
:101AD00099FDFFF78BFF0346002B03D00121002067
:101AE000FFF790FDFFF7C8FF034683F00103DBB269
:101AF000002B01D0FFF7B0FF00BFFFF7BDFF03468B
:101B000083F00103DBB2002BF7D10020FFF7F8FDD3
:101B10000120FFF7C3FF00220F210020FFF796FDF1
:101B200001210020FFF74CFD0320FFF7E9FD00BF76
:101B3000FFF76EFF034683F00103DBB2002BF7D102
:101B400002210020FFF73CFD00BF80BD80B483B0C0
:101B500000AF786039607B683A689A6000BF0C37E4
:101B6000BD4680BC704780B483B000AF78603960F8
:101B70007B683A68DA6000BF0C37BD4680BC7047AE
:101B800080B483B000AF78607B68DB6843F080028C
:101B90007B68DA6000BF0C37BD4680BC704780B4FC
:101BA00083B000AF78607B68DB6823F080027B68DD
:101BB000DA6000BF0C37BD4680BC704780B483B08C
:101BC00000AF78600B46FB701346BB70FA787B68F9
:101BD0001A60BA787B685A6000BF0C37BD4680BC7B
:101BE0007047FFFF80B485B000AF78607B680E4A15
:101BF000934202D10423FB730FE07B680B4A9342AC
:101C000002D11823FB7308E07B68094A934202D192
:101C10001923FB7301E00323FB73FB7B1846143786
:101C2000BD4680BC704700BF0000014000800940F5
:101C300000C0094080B485B000AF78607B680E4A70
:101C4000934202D10423FB730FE07B680B4A93425B
:101C500002D11823FB7308E07B68094A934202D142
:101C60001923FB7301E00323FB73FB7B1846143736
:101C7000BD4680BC704700BF0000014000800940A5
:101C800000C0094080B584B000AF78607868FFF785
:101C9000A9FF03461846FFF707FD07217868FFF7FD
:101CA00055FF786800F036F87B6800225A607B6840
:101CB0000022DA607B6800221A627B680022DA6404
:101CC0007B6800225A657B6800221A657B680A4A95
:101CD000934205D17B6800221A617B689B69FB6097
:101CE00003217868FFF73FFF7B6810229A6200BFEC
:101CF0001037BD4680BD00BF0000014080B483B0F6
:101D000000AF78607B6880221A6300BF0C37BD4645
:101D100080BC704780B483B000AF78607B680022DD
:101D20001A6300BF0C37BD4680BC704780B586B0D3
:101D300000AF786039607868FFF77CFF034618468B
:101D4000FFF7AAFD78613B681B017A69B2FBF3F3E8
:101D50003B613B691B0AFB60FB681B023A69D31AB3
:101D6000BB607868FFF70CFFBB68DBB2FA68D2B2E1
:101D700019467868FFF722FF7868FFF710FF7A6945
:101D80003B69B2FBF3F318461837BD4680BD08B572
:101D900000F008FEBDE80840FFF784B902F05CBB24
:101DA000F8B5304E3468002851D10020F8BD2368C2
:101DB000B3F1805F39D1D4E9013252B11168B1F188
:101DC000805F06D1516803330B4463609368A3605E
:101DD000F1E7AB4207DB9E4505DB20464FF00053A1
:101DE00040F80C3BE2E7634511D920464FF0005123
:101DF000656040F80C1B00EB8501A1604FF080543A
:101E00005B1B033B40F82540C1E90132CEE762B9D4
:101E1000A0EB830001F0B8FC0130C6D04FF00053B6
:101E200004F10C00C4E90035C0E72746A468002C83
:101E3000BDD10C3001F0A8FC431CB6D04FF00053CC
:101E40008460C0E9003557B930600C30AEE7C31C80
:101E50009D08002705F10A0C05F1030EE7E7B860BD
:101E6000F3E700BF50010010A8B14FF0805340F8D5
:101E70000C3C50F8042C72B11368B3F1805F0AD1A6
:101E800050F8083C516803330B4440F8083C936811
:101E900040F8043CEDE7704710B5FFF781FF0446BA
:101EA00028B917220349FFF745FA02F0EEFA204657
:101EB00010BD00BF4C45000010B5425C4318342AE9
:101EC00001DC002010BD352A06D1194611F8012F7A
:101ED000302AFBD0002AF4D01A46302412F8011D13
:101EE000392901D11470F9E7013111700278302AD3
:101EF000E7D01A1A002A01DA0120E3E713F80129D2
:101F00009A70F6E730B50A258C1FA14200D130BD8A
:101F100090FBF5F3C3EB4312C3EB8202303000EBCE
:101F2000420001F801091846EFE7FFFF0EB430B593
:101F300094B017AB53F8045B04463C22002105A87B
:101F40000493FFF72BFF0A2308936FF000430793D6
:101F5000104B4FF0FF320293049B05A8CDE90053CC
:101F60006FF00043059400F059FD079B0446013BC8
:101F7000002B079308DB0022059B1A70204614B043
:101F8000BDE8304003B0704705A9002001F03AFCDD
:101F9000F4E700BF991F00002DE9F04F9DB00593B5
:101FA0000B68144607934B68DDF89CB006930993C1
:101FB00047F6F073069A049033EA12432AD10023BD
:101FC000E370C2F31303079A13434FF06E031BD160
:101FD000637066236922A370069B2270002B07DAC8
:101FE000AB4B0326269A136030461DB0BDE8F08F38
:101FF000059B9A0706D4A74A13F0040FA64B08BF07
:102000001346EEE7A54BECE761222370A3706270E4
:10201000A04BE6E7049B23F02003412B00F0B182A4
:10202000002200230798099902F085F9079E0028ED
:102030003FD0099B03F1004501230C9300220023AC
:102040003046294602F059F9002840F0948229468A
:102050000FAA304601F0D3FC40F22D15CDE9100156
:102060004FF47A710F9A00205543A5F5AB531C3BF2
:1020700093FBF1FA8A49AAEB020201F0EBFC41F270
:1020800094139D42CDE91A0116DC7BA3D3E900230A
:10209000CDE91623CAF10005F5B1EF0712D4DDE949
:1020A0001601DDE9162301F053FE6D10CDE916018E
:1020B000F3E7069D0C90C1E700227A4B5546CDE927
:1020C0001623E9E7DDE91601DDE91A2301F040FEF8
:1020D000012DCDE91A01E2D1DDE91001DDE91A2374
:1020E0000FF29C19D9E9008901F0BCFE0026CDE968
:1020F00012016D4FDDE9120142464B4602F01BF919
:10210000002840F090800FF28019D9E9008900265C
:10211000654FDDE9120142464B4602F069F900289D
:1021200040F09480DDE9120102F09AF805468AEA4F
:10213000EA73A3EBEA730D930F9A2846AAEB020603
:1021400002F0D2F8324601F085FC00220023BAF1F9
:10215000000FCDE91201CDE9142380F2A78046A13A
:10216000D1E90001CDE91601CDE91823DDE91667B3
:10217000DDE916010026DDE9188932463B4601F00B
:1021800013FF42464B4601F0E3FFCDE91801CDE9CC
:102190001667DDE916010022424B01F0D9FD024627
:1021A0000B4600203E4901F0FFFE00223D4B01F0AE
:1021B00059FECDE918010D9B0893089BDE0700F13D
:1021C0008C80DDE91623DDE91889DDE91867104602
:1021D000194601F0BDFF42464B4601F0B9FF3246B9
:1021E0003B4601F0B5FDCDE91801DDE91601DDE959
:1021F000162301F0ADFDCDE91601DDE91667DDE935
:1022000016010026DDE9188932463B4601F0CCFE76
:102210004B46424601F09CFF089BCDE918015B103C
:10222000CDE91667C8E7DDE9120132463B4601F009
:102230008FFDCDE91201DDE91A0132463B4601F07E
:1022400011FE0AF1FF3ACDE91A0153E7DDE9120167
:1022500032463B4601F006FECDE91201DDE91A01E6
:1022600032463B4601F074FD0AF1010ACDE91A013C
:102270004FE700BFAFF300809A9999999999C93FA8
:1022800000000000006AF8400000000080842E4139
:102290009645000063450000664500006445000067
:1022A0000000F03F00001440000024404FF0000206
:1022B000BD4BCDE916234FF000024FF00003CDE9EE
:1022C00018237FF478AFDDE91201DDE9102302F075
:1022D0005EF8002843D1013D2EE7DDE91223DDE958
:1022E0001889CDE90A23DDE91601DDE9182301F09B
:1022F0002FFFDDE9146732463B4601F029FD4246D7
:1023000006460F46DDE90A014B4601F021FD024673
:102310000B463046394601F01BFFCDE91401DDE9DB
:102320001601DDE9122301F013FDCDE91201DDE90B
:102330001267DDE912010026DDE9148932463B46C9
:1023400001F032FE4B46424601F002FF089BCDE908
:102350001401012BCDE912677FF433AFB3E7DDE958
:102360001223DDE9100101F01FFECDE91001DDE9C6
:102370001423DDE9100101F017FECDE91001DDE9BC
:102380001A23DDE9100101F06DFD85A3D3E90023D7
:10239000CDE91001DDE9100101F0DAFCCDE9100111
:1023A000DDE9100101F05CFFDDE91067804601F016
:1023B0009BFF02460B463046394601F0F5FD78A3F7
:1023C000D3E9002301F0C4FCCDE91001DDE91001DF
:1023D00001F046FF0646002EC0F29980734B9E42E4
:1023E00000F39C80B8F1000FC0F29F806F4B9845BE
:1023F00000F3A1806E4A954200F3A3806D4B0A2240
:10240000B8FBF3F0B6FBF3F36B4902FB050501FBE8
:10241000008801FB036602FB083856430AF1FF3AC5
:1024200021463027284601F8067BFFF76BFD404622
:1024300004F10C01FFF766FD304604F11201FFF7CD
:1024400061FD002323750C9B0AF10505E77443EA3F
:102450008505002B00F09680584B269A35F0010533
:102460001360049B48BF0335672B4FEAA505DBF8D3
:1024700000300BDC049A602A00F3AA80452A00F0A1
:10248000A881472A04D0412A00F0B680672204922E
:10249000002BDCBF0123CBF80030DBF80010059ADD
:1024A0001129A8BF112142F4006220460131059292
:1024B000FFF702FDDBF800300544AB4240F38381B7
:1024C0002A1DC0F280816A1C9B1ACBF80030059A45
:1024D000002DDBF8003002F4006780F20481C5F1C2
:1024E00000085A1C424580F2C580302323702E23F9
:1024F00002266370DBF80030299A1360299B1B6861
:10250000002B40F313813E23A35501360EE106F55F
:10251000742606F5107608F1FF385CE7A6F57426F8
:10252000A6F5107608F1010859E708F5742808F5B2
:102530001078013D56E7A8F57428A8F51078013504
:1025400055E79D427FF76CAF0A226FF0090395FBB8
:10255000F2F103FB01551A480AF1010A00FB058557
:1025600095FBF2F803FB085300FB0366053696FB68
:10257000F2F60D4654E700266FF0040AB0463546E1
:102580004EE70025059B980706D40E4A13F0040F6A
:102590000D4B08BF134660E70C4B5EE7AFF30080BE
:1025A0000000000080842E41000014403F420F00D4
:1025B0009F860100A08601006079FEFF964500001D
:1025C00040420F006345000066450000644500007E
:1025D000049A613A052A3FF659AF01A151F822F059
:1025E000F92500008D2400008D2400008D240000BA
:1025F000D3270000CF240000DDE90620C2F3130139
:10260000C2F30A52FAB1A2F2FF35059E06F008069F
:102610001E431ED1AC482B46AC49049D002A0CBF7A
:1026200030223122612D08BF01462046FFF77EFC93
:10263000A74A099BA749064632EA230328BF0B464F
:10264000269A1360D0E450EA0105A34D08BF002587
:10265000DBE7CDE900010295A048049DA049002ACE
:102660000CBF30223122612D08BF01462046FFF702
:102670005DFCDDE72B449E1C122EC1BF299A113B45
:102680001326136077B931462046FFF715FC48B191
:102690007FEA050806F1010604D1637823702E2332
:1026A00063702BE7B8F1010F04EB06030CD11A1B82
:1026B000002A02DC30230136F0E713F801299A7072
:1026C000F5E713F80129DA701A1B002AF9DC302328
:1026D00023702E2363703C23289AA37008F1FF33E4
:1026E000023613600AE705EB030808F10206122E12
:1026F0004EDD87BB13212046FFF7DEFB58B31426BF
:102700000135731EAB4228DD631E6219997803F808
:10271000011F9A42FAD12E235370DBF800301D447A
:10272000299B113D1D60002D7FF4EDAE059B03F04C
:102730000803002F41D0002B7FF456ACA219161BC2
:1027400012F8013D302BFAD03E2BF8D02E2B7FF41F
:102750004BAC013E48E41326D3E7631CA21913F8DF
:10276000011B9A4203F8021CF9D13C2302F8013CF8
:102770002E22289BAD1B02351D60A255DBF80020E0
:10278000731CC2B1299902360A603E22E254CDE799
:102790003FB931462046FFF78FFB10B1013508F1F4
:1027A0000306631E25449A7803F8012F9D42FAD14F
:1027B0002E236B70BAE71E46B8E7DBF80020134300
:1027C0007FF412ACC5E7013BCBF80030049B023B21
:1027D0000493DBF80030112B05DD299A113B1360BF
:1027E0001123CBF80030059BDBF8006013F4006781
:1027F00006F1020604D131462046FFF75DFB054491
:1028000063782370059BDBF8002023F4FE6323F03C
:1028100007031B051B0D13431CBF2E236370299B4D
:1028200008BF01261B68002BC2BF3E23A3550136FB
:1028300077B1059B19070BD4A219161B12F8013D9D
:10284000302BFAD03E2BF8D02E2B08BF06F1FF36E6
:10285000002DB4BF2D212B21049BB8BF6D42A35581
:10286000B5F57A7F06F1010306F10202E1540ADBB5
:102870004FF47A73B5FBF3F303F13001A154194A15
:1028800002FB0355F21C632D0ADD642395FBF3F371
:1028900003F13001A1546FF0630101FB03550132D4
:1028A0000A2395FBF3F3DBB203F13001A154C3EB30
:1028B00043113035C3EB8103961C05EB43032244DF
:1028C0005370FFF791BB00BF6845000070450000E2
:1028D000634500009645000001FCFFFF78450000BD
:1028E0008745000018FCFFFFF0B50C4616461F4652
:1028F000054695B010B931BB012404AD3C2200213E
:1029000005A8FFF74BFA0A2308936FF000430595DB
:10291000002507930D4B621ECDE9017300962B46EF
:1029200005A800F07BF8079A0446013AAA420792EC
:1029300004DB059B1D70204615B0F0BD284605A997
:1029400000F060FFF7E74FF0FF34F4E7991F000055
:102950000FB473B506AB53F8046B012132466846D9
:102960000193FFF7C1FF041E13DD651C2846FFF726
:1029700017FA009068B132462946019BFFF7B4FF71
:10298000074B22460099186DFEF7D4FC0098FFF71C
:102990006BFA204602B0BDE8704004B0704700BF3B
:1029A0005801001010B5174A1749002000F0CAFF5F
:1029B0004FF480734FF480620021124800F09EFEB5
:1029C000124A1349012000F0BDFF4FF480734FF409
:1029D000806200210D4800F091FE0E4B1B68022B17
:1029E0000EDD0D4A0A49022000F0ACFFBDE81040A0
:1029F0004FF480734FF480620021074800F07EBEE0
:102A000010BD00BF5801001098450000940100104F
:102A10009A450000D0450000D00100102DE9F04F8C
:102A20009FB0CDE9082300230446299F0793DDF8D2
:102A3000A09019F8010B18B907981FB0BDE8F08FE6
:102A400025281CD0DDE908AB079B1946DA175E1C68
:102A50001346514573EB0B030A4608DAA368013BA2
:102A6000002BA36007DB23685A1C226018700796AE
:102A7000CDF8A090DBE7214600F0C4FEF7E74FF069
:102A8000000815E0BAF12D0F0FD0BAF1300F51D078
:102A90004FF0000B0A22AAF13003D9B2092926D837
:102AA00002FB0B3B15F801ABF5E748F00108A9461E
:102AB0004D4615F801ABBAF12B0F32D0E2D8BAF17E
:102AC000200F31D0BAF1230F31D0BAF12A0FDFD164
:102AD0003E4656F804BB95F800A03746BBF1000F00
:102AE000BCBFCBF1000B88F0010809F102052BEA0D
:102AF000EB73BAF12E0F0C9340F0A28095F800A072
:102B0000BAF12A0F19D04FF000090A220135AAF1B3
:102B10003003D9B2092917D802FB093915F801ABDE
:102B2000F5E748F00208C2E748F00408BFE748F0BC
:102B30000808BCE748F40078B9E73E4656F8049B1D
:102B400095F801A037460235B9F1000F78DB48F05F
:102B50001008BAF16C0F0DD195F800A0BAF16C0F06
:102B600003BF95F801A048F060080235013518BF91
:102B700048F02008BAF14C0F02D0BAF1710F62D1BF
:102B800015F801AB48F06008BAF1780F0CDCBAF127
:102B9000570F79DCBAF1410F00F00B8300F3BE80D0
:102BA000BAF1000F00F015810C9B5E1E18F00103B6
:102BB000049340F0ED80079B18F4007F14BF30228F
:102BC000202298464FEAE379013E40F1C6800C9BF3
:102BD000BBF1000F03F1FF33CCBF18460020C3F157
:102BE0000003D8BF0023079A10440C9A023A9E189B
:102BF000431C0793C117DDE90823904271EB0303DF
:102C00000ADAA268013A002AA260C0F2C3802268F0
:102C1000511C216082F800A0049B7BB1079BB34646
:102C200098464FF0200A4FEAE379BBF1010B40F1DF
:102C3000B680079B002EA8BF9B1907933E46D5E0A0
:102C40004FF0000985E7BAF1680F0ED195F800A0A2
:102C5000BAF1680F03BF95F801A048F480780235F7
:102C6000013518BF48F080088EE7BAF16A0F04D129
:102C700048F0400815F801AB86E7BAF17A0FF9D0B1
:102C8000BAF1740F80D1F5E7AAF15803202B8BD845
:102C900001A252F823F000BF592F0000A92B000019
:102CA000A92B0000A92B0000A92B0000A92B0000D4
:102CB000A92B0000A92B0000A92B0000B3310000B4
:102CC000A92B0000512D00004B310000272D0000E2
:102CD000272D0000272D0000A92B00004B310000FC
:102CE000A92B0000A92B0000A92B0000A92B000094
:102CF000D72D00008530000019300000A92B0000FE
:102D0000A92B0000132E0000A92B0000F5300000B5
:102D1000A92B0000A92B0000B92F00002AF0020304
:102D2000452B7FF441AFFE1D26F00706F6E802238F
:102D30000021CDE914230022002318F0100F08BF52
:102D40004FF006090846CDE9042348F480686CE199
:102D50003E4656F804AB374626E7DDE908018045D4
:102D600079EB010308DAA16801390029A16008DBC9
:102D70002168481C20600A7018F1010849F1000917
:102D800022E7104621460A9200F03CFD0A9AF3E73A
:102D900007982DE72146504600F034FD3CE7DDE979
:102DA0000823904579EB030309DAA268013A002A67
:102DB000A26009DB2268511C216082F800A018F192
:102DC000010849F1000930E72146202000F01AFDF2
:102DD000F5E7013D32E718F0400F3B68079A07F12D
:102DE000040607D01046D117C3E900013746A946AB
:102DF000079E3CE618F0200F01D01A60F6E718F4A1
:102E0000807F01D01A70F1E718F0800FF5D01A809A
:102E1000ECE73E46B04B56F804BBBBF1000F08BFD1
:102E20009B46584600F089FC18F0100F824602D0ED
:102E30004845A8BFCA460C9BA3EB0A0718F001033C
:102E4000049312D1079B18F4007F4FEAE379984668
:102E500014BF302220223B46013B26D5079A27EAA1
:102E6000E7731A44013F0792FF1A079B98464FEAFF
:102E7000E3790023534535DB079BBAF1000FA8BF68
:102E800053440793049B002BB0D0079BBA46984647
:102E90004FF0200B4FEAE379BAF1010A42D5079BC4
:102EA000002FA8BFDB190793A0E7DDE908018045E3
:102EB00079EB010108DAA16801390029A16008DB7A
:102EC0002168481C20600A7018F1010849F10009C6
:102ED000C2E7104621460C930A9200F093FC0C9B2B
:102EE0000A9AF1E7DDE90812884579EB02020ADA6D
:102EF000A268013A002AA2600CDB2268511C216002
:102F00001BF80310117018F1010803F1010349F1D6
:102F10000009AFE71BF8030021460A9300F072FC9A
:102F20000A9BF0E7DDE90823904579EB030309DA12
:102F3000A368013B002BA36009DB23685A1C2260B5
:102F400083F800B018F1010849F10009A4E721460F
:102F5000202000F057FCF5E718F0400F1BD0FE1DB5
:102F600026F00706F6E80223CDE9042318F08001D5
:102F700019D00023BDF8101005930491574918F09B
:102F8000080F574808BF084618F0100F01D028F462
:102F90000078544949E03E4656F8042B002110467B
:102FA000CDE90401E2E718F4807FE7D0049B03F049
:102FB000FF00CDE90401E1E718F0400F1BD0FE1D32
:102FC00026F00706F6E80223CDE9042318F0800175
:102FD00019D00023BDF81010059304913F4918F053
:102FE000080F414808BF084618F0100F01D028F418
:102FF00000783E4919E03E4656F8042B0021104661
:10300000CDE90401E2E718F4807FE7D0049B03F0E8
:10301000FF00CDE90401E1E73E4656F8042B00210C
:103020001046CDE9040131492F48CDE91090DDE982
:1030300008BC4FF0FF30079B16AFBBEB030B6CEBEC
:10304000E37CCDE90ABCCDE91200BC4600204FF07C
:10305000550E013020280CF801EBFAD118F4826FDC
:1030600004BF01201090BAF16E0F00F3AA80BAF1EC
:10307000470F00F32881BAF1400F00F3B5804FF0FD
:103080000009BBE018F0400F15D0FE1D26F0070622
:10309000F6E80223CDE9042318F0800113D00023C1
:1030A000BDF8101005930491114818F0080F0B4952
:1030B00008BF084660E03E4656F8042B0021104643
:1030C000CDE90401E8E718F4807FEDD0049B03F01C
:1030D000FF00CDE90401E7E79C45000063450000DF
:1030E000A3450000AB450000A6450000BC4500001C
:1030F000A945000018F0400F16D0FE1D26F0070667
:10310000F6E80223CDE9042318F0800114D000234F
:10311000BDF810100593049118F0100102D00021A1
:1031200028F40078954880E73E4656F8042B0021A5
:103130001046CDE90401E7E718F4807FECD0049B4A
:1031400003F0FF00CDE90401E6E718F0400F1BD0C3
:10315000FE1D26F00706F6E8022318F0800F18D0AF
:1031600012B2D317002A73F1000117DA524263EB4F
:103170004303CDE90423824818F010013FF455AF12
:10318000002128F4007850E73E4656F8042BD31768
:10319000E3E718F4807FE5D052B2E2E718F0020FBF
:1031A000CDE9042303D1774818F0040F7FE7764870
:1031B000E2E718F0100F04BF4FF00D0948F01008B7
:1031C000B1E5AAF16F0A4FF00009BAF1090F15D85D
:1031D000DFE81AF0CF00B800140014001400140047
:1031E000430114001400B8004FF00109AAF1410096
:1031F00009FA00F919F0510940F0328118F480639E
:103200000D9300F03D8100231093129B002BC4BF4F
:1032100003F1FF331093139B002B03DD109A013B46
:10322000134410931198109F00F087FA0C9B4F44A1
:10323000DF1B3B1A049308F001030C9340F20123B7
:1032400018EA030F00F047810027BA464FEAE77BF0
:10325000119B5A1C11921B78002B40F044810C9A50
:10326000A2B918F4007F14BF30222022BA46DDF83C
:1032700010804FEAE77BB8F1010840F14F81049AD2
:10328000511E22EAE272891A049117440D9A002A0B
:1032900000F061814FF03008994500F374810C9B78
:1032A00073B1B8464FF0200BDDF810A04FEAE77974
:1032B000BAF1010A40F10782049B002BA8BFFF1856
:1032C000079B3B44EFE5AAF1580011283FF6D7AE23
:1032D00011283FF6D4AE01A353F820F04F3300007D
:1032E0007F3000007F3000007F3000007F30000022
:1032F0007F3000007F3000007F3000007F30000012
:10330000613400007F3000007F300000573400003F
:103310006134000061340000613400007F3000003F
:1033200057340000049B09F1010903F00F00085C09
:1033300007F8010B1809059B40EA03704FEA131CBC
:10334000CDE9040CDDE904231343EBD156E74FF03C
:103350000009F7E7049B09F1010903F00701303187
:1033600007F8011BD908059B41EA4371D808CDE94C
:103370000410DDE904231343ECD13FE7634500006B
:10338000964500006645000064450000049B049AD1
:103390005908059B30324FEA530C41EAC371049B34
:1033A00009F101094FEA930E059B4EEA837E11EB6A
:1033B0000E014FEA93004CEB00004FEA111E4EEA5B
:1033C000007E11EB0E014FEA101C40EB0C004FEA9F
:1033D000112E4EEA006E11EB0E014FEA102C40EB5D
:1033E0000C004FEA114C4CEA004C11EB0C014FF071
:1033F000000C4FEA104E40EB0E00091840EB0C0099
:103400004FEAD10C4CEA407C4FEAD00EACFB0A01EB
:10341000049B0AFB0E1113F1060B059B43F10003FD
:10342000BBEB000B63EB01004FEA1B1343EA007395
:1034300013EB0C0C4FEA101141EB0E0E0CEB8C034E
:10344000CDE904CEA2EB430207F8012BDDE904230A
:1034500013439BD1D2E64FF000094FF00A0AF5E77B
:1034600013AB039312AB029310AB019311AB009318
:10347000504643462A9F16AA14A9B8478146BDE67E
:10348000109B0D9AB3EB090348BF1346C9E6DDE96B
:103490000A128A457BEB020208DAA268013A002A86
:1034A000A26011DB2268511C216017701AF1010A19
:1034B0004BF1000BA3EB0A02002AE8DA049A22EA95
:1034C000E277DB1B0493C0E6214620200E9300F038
:1034D00099F90E9BEAE7049B4FF0000A4FF0000BAE
:1034E0002027013BE6E7DDE90A128A457BEB020271
:1034F00007F1010708DAA268013A002AA26008DB96
:103500002268511C216013701AF1010A4BF1000B63
:103510009EE62146184600F075F9F5E7DDE90A0157
:1035200082457BEB010108DAA16801390029A1601D
:1035300008DB2168481C20600A701AF1010A4BF16F
:10354000000B98E6104621460F930E9200F05AF9B0
:10355000DDE90E23F1E7BA464FF030084FEAE77B8A
:10356000109B013B002B109375DABA464B464FEA8D
:10357000E77B002B03F1FF3800F38980B9F1000FDE
:10358000A8BF4F448BE616AAD05CBA463C284FEA47
:10359000E77B33D03E2846D1139A013A002A139292
:1035A00031DBDDE90A128A457BEB020207F10107F4
:1035B00009DAA268013A002AA2602DDB2268511CB8
:1035C000216082F800801AF1010A4BF1000BE3E759
:1035D000DDE90A128A457BEB020207F1010709DAED
:1035E000A268013A002AA2600FDB2268511C216008
:1035F00082F800801AF1010A4BF1000B129A013A8D
:10360000002A1292E4DA013346E6214630200D9377
:1036100000F0F8F80D9BEDE7214630200D9300F007
:10362000F1F80D9BCFE7DDE90A128A457BEB020238
:1036300007F10107E7DAA268013A002AA26004DB79
:103640002268511C21601070DDE721460D9300F0C7
:10365000D9F80D9BD7E7DDE90A2392457BEB0303FD
:1036600007F1010709DAA368013B002BA36009DB1E
:1036700023685A1C226083F800801AF1010A4BF17A
:10368000000B6DE72146302000F0BCF8F5E7DDE9DE
:103690000A2392457BEB03030BDAA36816AA013BCE
:1036A000002B12F80800A36009DB23685A1C226073
:1036B00018701AF1010A43464BF1000B59E72146F5
:1036C00000F0A0F8F5E7DDE90A23904579EB030364
:1036D00009DAA368013B002BA36009DB23685A1CAD
:1036E000226083F800B018F1010849F10009DFE514
:1036F0002146202000F086F8F5E700BF70B5C468C9
:10370000A50708D0B2F5007F11D0B2F5806F04D0C4
:10371000B2F5807F0BD0012008E0012300F12401E5
:10372000224301610160C361C260002070BD6FF07F
:103730007F455E1EAE42F3D3EDE710B5421C830712
:10374000044616D1234654F8041BA1F1013020EAA7
:10375000010010F0803FF5D011F0FF0F11D011F4EF
:103760007F4F0CD011F47F0F14BF23460333981AF8
:1037700004E010F8013B002BE1D1801A10BD0233A8
:10378000F5E70133F3E7FFFF70B50B4D2B680BB97D
:103790000A4B2B60C41C2E6824F0030434442046DA
:1037A00000F0ACFA10B92C60304670BD0C22044B0E
:1037B0004FF0FF361A60F7E74C0100103C03001091
:1037C00054010010C36810B523F020038269C36060
:1037D000836A04469A420ED000F0E8F8E36823F4C6
:1037E000405323F0100343F01003E360A36AA36186
:1037F0002369E3622360E36823F4804323F04003FA
:10380000E36010BDCB6870B523F400220C46CA609B
:103810009906054602D52046FFF7D4FFD4E90236C3
:103820005A1C10DAB0050ED4C3F1FF2303F57F0351
:10383000FE33A360236846F490365A1CE66022608B
:103840001D70E8B270BD41F28A023240022A07D0F0
:10385000002346F08006A360E6604FF0FF30F1E7FA
:103860004AF210033340B3F5004F0AD1002120463D
:1038700000F098F9E368990602D52046FFF7A2FF09
:10388000E66846F4903316F4706FE3600ED1606919
:1038900000F002FE00B372051ED504F1240323617B
:1038A00023600123E36146F49233E36013F4106F65
:1038B0002168266926D0E36A99422CBFC6EB010134
:1038C000C6EB0301B9B9731CE3622360E3695A1EB6
:1038D000A26023633570B4E74FF48070FEF7DCFA22
:1038E0004FF48073E268E36146F494331A43206135
:1038F0002060E260DAE72246304600F0CFF8002888
:10390000E1D0AAE74A1CEDB222600D70E26A21689C
:1039100091422CBFC6EB0101C6EB0201E2695B05D7
:10392000226303D40A2D01D08A4209DC00232246F7
:103930003046E6622660A36000F0B0F800288CD123
:1039400028467FE770B50D4606461046144600F03F
:10395000DBF82B78722B17D0772B18D0612B23D163
:10396000082348F2020215F8011F2B2912D0622900
:1039700015D01B07E260666104D5022200212046B3
:1039800000F010F9204670BD00230122EBE704236C
:103990000222E8E742F0030243F00203E3E742F0C9
:1039A000040243F00103DEE70024EBE738B50446E8
:1039B00005690168C36AC06820F40022E26000F073
:1039C0008202022A02D04FF0FF3038BD10F480305E
:1039D000FBD0994238BF19468D4208D10020E368D8
:1039E000E56223F480332560A060E360EDE72246C2
:1039F0002846491B00F052F80028EFD0E3E7F8B55D
:103A000016460023002204460D4600F076FC20B145
:103A10000023002000213360F8BDC5F30A5320467F
:103A20002946A3F2FE327BB9C5F31303E70F03F473
:103A3000002547EA4303C3F3130364000DB9013AB9
:103A4000F4E7204663F3130140F2FE33326063F380
:103A50001E51E1E770B500231646002204460D46CC
:103A600000F04BFC10B10020002170BDC5F30A53DB
:103A70009A1940F2FE739A422046294605DD222219
:103A8000044B002004491A60EFE7002AEBDD62F3E3
:103A90001E51EAE7540100100000F07F2DE9F041CB
:103AA000D5688046EB020E461446576905D5384660
:103AB00000F0EFFC45F01005A061124B2B408BB1DC
:103AC0003846A16900F0EEFC002806DAE3684FF002
:103AD000FF3043F08003E36011E025F4003525F06A
:103AE0001005E560324641463846FDF723FC20F0DC
:103AF0000041761AA1690E44A6610028E6D1BDE80E
:103B0000F08100BF10000200F0B5C4680546A107AF
:103B100089B022D0220718D4D0E9046700F020F839
:103B2000384600F0B3FC230502D53046FEF79CF979
:103B3000A40DA40514F1A54F07D120226846296AD7
:103B400000F0B3FC684600F0CFF83C220021284684
:103B5000FEF724F9002009B0F0BD4FF0FF30FAE77E
:103B6000F7B5044698B103B0BDE8F04000F0D0B816
:103B700007FB046000F0CCF8002818BF4FF0FF35B9
:103B80000134019BA342F3DC284603B0F0BD034B94
:103B900005461B683C27024E0193F2E7D045000022
:103BA000580100102DE9F843C6683D4B04463340E8
:103BB0000D4690461BB902273846BDE8F883D0F879
:103BC0001490484600F068FC07460028F3D1B8F18D
:103BD000010F2CD0B8F1020F2ED0B8F1000FEAD1AE
:103BE000002DE8DBB00404D52368E26A9A4238BFAE
:103BF000E362A169A9420EDC2368E26A934238BFFE
:103C0000134622695818801AA84204DB206B01EB86
:103C1000000CAC4534DC0023C4E9013346F0200637
:103C2000A56226F4032626F04006E660C4E7204697
:103C300000F038F80544D3E7484600F02AFCB0F11C
:103C4000000CE26804DA42F080020127E260B3E788
:103C500023681846A3691946E36A98422CBF0918DD
:103C6000C9180B4621699206A3EB010303D5A26A8A
:103C70009342B8BF13466345ACBFED186544AFE748
:103C80006D1AB10744BF281AA060F10744BF9B1A00
:103C9000EB1A154448BF6360256026F02006C0E794
:103CA00003001000C3689A0705D121220D4B4FF085
:103CB000FF301A60704703F020021B0309D512B1D0
:103CC000806A013870470368826900691344181AD2
:103CD000F7E70AB1806A7047036882690069134494
:103CE000181A70475401001010B50446FFF725FD5F
:103CF00001462046BDE8104000F0D1BB0346034812
:103D000018B1834234BF002001207047000000003A
:103D1000C36870B513F00306044611D09B0611D595
:103D2000856AFFF74FFDE368204623F44053E360C4
:103D3000FFF73CFE0022064629462046FFF732FFE9
:103D4000304670BD816905680D4401696D1AEAE766
:103D50009C460B462DE9F047054683EA0C04C3F365
:103D60000A50164640F2FF7104F0004430B1884218
:103D700004D0CCF30A520AB18A4207D15B0013F592
:103D8000001F55D359D00020344943E0C3F3130337
:103D900043F480114FEAC628730DA1FB0867104455
:103DA000B6463A46A8FB05674FF00009B84643EA15
:103DB000CC2C00234FF0000A4CF0004CE5FB0C89A2
:103DC000ECFB012318EB0E0149EB0A0A12EB0A0285
:103DD00043F10003B3F5801F41EA96011CD2961807
:103DE000A0F5806543EB0300034646EAD172490023
:103DF000C80F121843F10003B1F1004F40F2FD71FA
:103E0000164608BF22F001068D4208D830461C43F2
:103E100004EB0551BDE8F087A0F2FF35E8E7002D7F
:103E200003DB44F0FF4444F4E00400202146F1E7C2
:103E30004FEA4C0212F5001FF7D3094A4FEA4C0C27
:103E40009445A0D813424FF000009DD01CEA020F09
:103E50009AD044F0FF4141F4E001DBE70000F87F35
:103E60000000E0FF2DE9F0430C46C4F30A568446F7
:103E70001746194640F2FF7283EA040036B19642B3
:103E800004D0C3F30A530BB1934206D1444A6500F0
:103E900095425BD90020434962E0F61A4FEA5C5331
:103EA00043EAC42444F000437C0D44EAC12141F0BC
:103EB00000494B454FEACC224FEAC72808BF42458C
:103EC00022BF51085C0841EAC3714FF0350C28BF8E
:103ED00023464FF000042ABF0A4606F2FD3106F2DF
:103EE000FE314FEA580646EAC9764FEA5907BB4207
:103EF00008BFB2424FEA440404D3921B63EB0703AA
:103F000044F0010492185B41BCF1210F08BF254623
:103F1000BCF1010CEBD1BB4208BFB24202D3013469
:103F200008BF013540F2FD72914200F0004304D811
:103F300003EB01535919204612E000200029A4BFC9
:103F400043F0FF4343F4E003194609E04E0016F541
:103F5000001F9FD8214312EA410303D1184611499B
:103F6000BDE8F08315EA020400F000434FF00000C2
:103F700001D11946DFE7324005D143F0FF41104639
:103F800041F4E001ECE716F5001F04D043F0FF41D7
:103F900041F4E001E4E715F5001F3FF47CAFD3E7FF
:103FA0000000E0FF0000F87F944693EA0102F0B4BD
:103FB00005460E4606D503F100452B46F0BC624689
:103FC00000F0C6B88B4203D8844508D38B4206D193
:103FD00002F10042564053402A466546944640F25C
:103FE000FF70C6F30A52190D82424FEA1657C1EB11
:103FF000165400F09F80944200F09980C6F313029B
:10400000C3F313031F2C42F4801243F480134FD8E0
:104010002031C91B23FA04F08B402CFA04F41C4312
:104020002C1BA2EB000238BF02F1FF321CFA01F395
:10403000254603D05B42651E04B9013A12F4C01F45
:1040400054D1E90FDB0F41EA420243EA450352EA49
:1040500003046DD0BC1E510B24D0510C01BF190FAD
:1040600041EA02121B01043CD10C01BF990F41EA45
:1040700082029B00023C110D02BFD90F41EA4202AD
:1040800004F1FF344FEAD67108BF5B00B1EBD42FC7
:104090004FF0000006BF184602EB045106F0004145
:1040A000F0BC7047190E41EA02221B02083CD2E71D
:1040B000352C1BD8203C23FA04F1691AC4F12000E6
:1040C00003FA00F338BF02F1FF322CFA04F45FEA7E
:1040D0000C600D4643EA040306D043F0FF035B4245
:1040E0004D1E19B9013A01E0002BF8D1D10209D4D3
:1040F000013F7C050FD0E90F41EA4202D90F41EAA6
:1041000045055B00002B22F480124FEA075405DBC3
:1041100011192846C4E739052046C1E7013508BF13
:104120000132B3F1004F08BF25F00105F0E754B9A3
:104130002146F1E733034FF0000001D00349AFE718
:104140000CB90249E8E73146E3E700BF0000F87F19
:1041500093EA010FF0B404460D46174605D503F166
:1041600000452B46F0BCFFF71FBF8B4288BF1D46A2
:1041700040F2FF7C88BF0B46C5F30A5684BF144645
:104180000746190D66454FEA1550C1EB15525DD033
:10419000B24256D0C5F31306C3F313031F2A46F4E5
:1041A000801643F4801327D82031091A23FA02FC21
:1041B00027FA02F28B401343E418664428BF013605
:1041C00007FA01F3B2022CD5013408BF01360BB94E
:1041D00024F002042D0D2D0505EB56056B0013F59B
:1041E000001F2BBF431C29460020F60734BF46EAB8
:1041F00054001905F0BC7047352AE3D8203A23FA59
:1042000002F16418C2F1200103FA01F327FA02F265
:1042100043EA020328BF01363A0618BF43F0FF0302
:10422000D0E7002B00F1FF3207DA013408BF013676
:10423000B3F1004F08BF24F0010406EB0251204601
:10424000D8E74AB9104605F00041D3E72B034FF0F9
:10425000000001D00149CDE72946F0E70000F87FD2
:104260000246C80240EA525040F21E42A2EB1152EE
:1042700040F00040FF2A20FA02F011D912F4E06F5A
:1042800001D14042704711F0804009D04A0012F538
:10429000001F04D86FF0004000EBD1707047002081
:1042A000704720B903460246104619467047030C72
:1042B0000CBF000401F18071030E0CBF000201F578
:1042C0000001030F0CBF000101F58001830F0CBF3B
:1042D000800001F500110028ACBF400001F58011FD
:1042E00001EBE0234205DFE700F00041002801F187
:1042F0008041B8BF4042FFF7D4BF30B504461046F6
:104300001A460B4621461446024641EA4405154327
:1043100055EA43054FEA430009D0A34209D191422F
:1043200007D110F5001F8CBF0020012030BD0120F7
:10433000FCE70020FAE730B5054610461A4651EA78
:10434000020304460BD4530013F5001F1DD89142FD
:1043500019D31AD185422CBF0020012030BD48005E
:1043600010F5001F11D8530013F5001F0DD82B4373
:1043700023431843F2D0914205D806D1A54294BFF9
:1043800000200120EAE70120E8E70020E6E770B519
:104390000D4601462C4610461A460B4654EA0201C9
:1043A00005460BD4510011F5001F1DD894421DD3B2
:1043B0001AD183428CBF0020012070BD660016F523
:1043C000001F11D8510011F5001F0DD894420DD8CF
:1043D00001D183420AD241EA0300284350EA06038E
:1043E0000CBF01200020E8E70020E6E70120E4E719
:1043F00070B50D461C4601460B4621461046144634
:1044000055EA01024FEA45060AD416F5001F1FD8E7
:104410008D421FD81CD1834234BF0020012070BDC3
:1044200016F5001F14D84A0012F5001F10D88D424F
:1044300010D304D183428CBF00200120EFE742EA71
:104440000300204350EA06030CBF01200020E6E7EA
:104450000020E4E70120E2E7034613F0030F0ED14A
:1044600001F0FF0141EA012141EA0141043A24BF80
:1044700043F8041BB2F10402F9D202F10402013A3A
:1044800024BF03F8011BFAE77047FEE74FF0FF3047
:1044900070474FF0FF3070474FF0FF3070474FF0DC
:1044A000FF3070474FF0FF3070474FF0FF307047DC
:1044B00049444C4500FFFFFF5469636B3A20256473
:1044C0000D0A00FF765461736B4C65643100000087
:1044D000765461736B4C65643200000076546173EE
:1044E0006B5561727400FFFF001BB7000080000075
:1044F000000A0000080A0000200A0000280A000044
:10450000B0080000B8090000D00A0000010900004E
:1045100009090000210900004109000049090000C3
:1045200051090000710900007909000081090000AB
:1045300089090000D90900001A0800007808000065
:104540002208000080080000880800002A2A2A208B
:104550005F437379735F616C6C6F63206661696C34
:1045600065640A002B002000307825637025640004
:104570003058256350256400307825632E252E2A77
:104580006C6C7870256400305825632E252E2A6CBB
:104590006C58502564002D0072007700286E756CF1
:1045A0006C2900305800307800300030313233341C
:1045B000353637383941424344454600303132338D
:1045C00034353637383961626364656600FFFFFF52
:0445D00008000000DF
:0845D400AAAAAAAAFFFFFFFF3B
:040000030000017187
:00000001FF
